:020000040800F2
:10000000304500205D020008BF19000845170008B0
:10001000BD190008B9030008091E0008000000000F
:100020000000000000000000000000009D0100082A
:100030005104000800000000F9010008C11900087F
:1000400077020008770200087702000877020008AC
:10005000770200087702000877020008770200089C
:10006000770200087702000877020008770200088C
:10007000770200087702000877020008770200087C
:10008000770200087702000877020008770200086C
:10009000770200087702000877020008770200085C
:1000A000770200087702000877020008770200084C
:1000B000791A000877020008770200087702000822
:1000C000770200087702000877020008770200082C
:1000D00077020008FD1D000877020008770200087B
:1000E000770200087702000877020008770200080C
:1000F00077020008770200087702000877020008FC
:1001000077020008770200087702000877020008EB
:1001100077020008770200087702000877020008DB
:100120007702000877020008BD0300087702000884
:1001300077020008770200087702000877020008BB
:1001400077020008770200087702000877020008AB
:100150007702000877020008C90300087702000848
:10016000770200087702000877020008770200088B
:1001700077020008770200087702000800000000FC
:100180007702000877020008DFF80CD000F002F9CF
:1001900000480047AD200008304500202C4B19686E
:1001A0000868B0E8F04F80F30988BFF36F8F4FF015
:1001B000000080F3118870470000000008480068C4
:1001C000006880F308884FF0000080F3148862B65E
:1001D00061B6BFF34F8FBFF36F8F00DF00BF00BF6B
:1001E00008ED00E0DFF80C00016841F470010160E7
:1001F000704700BF88ED00E0EFF30980BFF36F8F19
:10020000134B1A681EF0100F08BF20ED108A20E96A
:10021000F04F106009B44FF0500080F31188BFF325
:100220004F8FBFF36F8F02F06BFC4FF0000080F335
:10023000118809BC19680868B0E8F04F1EF0100F6B
:1002400008BFB0EC108A80F30988BFF36F8F704746
:1002500028000020EFF30580704700000648804723
:1002600006480047FEE7FEE7FEE7FEE7FEE7FEE79B
:10027000FEE7FEE7FEE7FEE7691A000889010008CD
:100280002DE9F05F0546002092469B4688460646CB
:10029000814640241BE0284641464746224600F05E
:1002A00069F853465A46C01A914110D31146184670
:1002B000224600F050F82D1A67EB01084F462246FF
:1002C0000120002100F047F817EB00094E41201EE5
:1002D000A4F10104DFDC484631462A464346BDE826
:1002E000F09F40EA01039B0703D009E008C9121FF1
:1002F00008C0042AFAD203E011F8013B00F8013BE0
:10030000521EF9D27047D2B201E000F8012B491E0B
:10031000FBD270470022F6E710B513460A460446A2
:100320001946FFF7F0FF204610BD30B50B460146D9
:1003300000202022012409E021FA02F59D4205D384
:1003400003FA02F5491B04FA02F52844151EA2F12E
:100350000102F1DC30BD202A04DB203A00FA02F170
:10036000002070479140C2F1200320FA03F31943A3
:1003700090407047202A04DB203A21FA02F0002145
:10038000704721FA02F3D040C2F1200291400843A5
:1003900019467047064C074D06E0E06840F001033F
:1003A00094E8070098471034AC42F6D3FFF7F0FE0C
:1003B0003C3400085C340008FEE70000014800F00F
:1003C000A5B8000038030020014800F09FB80000E5
:1003D0009803002001681823CAB2103AB2FBF3F266
:1003E000054B6FF30901032A9B5CC36500D9091D06
:1003F00081650846704700000034000810B50146CA
:1004000000208B698A6A4FF0C07453B1B3F5005F66
:1004100015D072B1012A0CD0022A0AD0032A09D1C0
:1004200004E01AB1012A06D0022A03D1C96AC9011F
:1004300000D5012010BDC96AA142FAD010BD002A22
:10044000F7D0012AF2D0022AF3D0032AF3D010BD4C
:10045000704772B6FEE72DE9F0410446876D00F063
:1004600099FA064694F835000025022806D0802027
:10047000606584F834500120BDE8F081206801688F
:1004800021F0160101602068416921F0800141617D
:10049000206C08B9A06C20B12068016821F0080127
:1004A00001602068016821F0010101600CE000F0AA
:1004B00071FA801B052807D920206065032084F885
:1004C000350084F83450D7E720680068C007EED1C3
:1004D00094F85C103F208840B860012084F8350013
:1004E00084F834500020C7E790F83510022903D073
:1004F0008021416501207047052180F83510006892
:10050000016821F001010160002070472DE9F843E6
:1005100004464FF00009CDF8009063484FF416519F
:10052000A56D0068B0FBF1F72E6894F85C10082008
:1005300000FA01F131420FD021680A6852070BD549
:100540000A6822F004020A6094F85C108840A860EF
:10055000606D40F00100606594F85C104FF0010898
:1005600008FA01F0304208D021684969090604D52B
:10057000A860606D40F00200606594F85C10042093
:100580008840304208D021680968890704D5A860EE
:10059000606D40F00400606594F85C1010208840A5
:1005A000304218D021680968090714D5A86020686E
:1005B0000168490304D50068000308D5A16C07E071
:1005C0000168C90503D4016821F008010160216CAC
:1005D00009B12046884794F85C10202088403042BA
:1005E00031D021680968C9062DD5A86094F8350076
:1005F00005282068016806D0490347D50068000334
:100600001DD4616C1CE021F0160101602068416975
:1006100021F080014161206C08B9A06C20B12068F4
:10062000016821F00801016094F85C103F208840C7
:10063000A86084F8358084F83490216D1FE0E16B68
:1006400009B120468847606D00282BD0606DC00737
:1006500014D0052084F835002068016821F00101DC
:1006600001600098401C0090B84203D820680068E0
:10067000C007F6D184F8358084F83490E16C002905
:1006800010D001B02046BDE8F04308470168C90515
:10069000D5D4016821F01001016084F8358084F818
:1006A0003490CCE7BDE8F883240000202DE9F04128
:1006B000044600F06FF906465CB1022084F835006C
:1006C000002584F834502068016821F001010160A0
:1006D0000DE00120BDE8F08100F05CF9801B0528E9
:1006E00005D920206065032084F83500F2E72068F2
:1006F0000068C007F0D12268116820480140D4E9A1
:1007000001031843D4E9033633431843636918439C
:10071000A3691843E3691843236A18430843616ACD
:10072000042903D1D4E90B1319430843106020684E
:100730004069666A20F0070130460E43012704280D
:100740000CD1A06A0643E06A40B12046FFF756FE8E
:1007500020B14020606584F83570BAE720684661B2
:100760002046FFF737FE94F85C203F2191408160DE
:10077000656584F835700020ACE700003F8010F01C
:100780002DE9F84FDFF8BCA10022012503264FF028
:100790000F090AF1040BAAF1040E00BF0B6805FA59
:1007A00002F42340A34270D10F7907F00307012F11
:1007B00001D0022F16D187684FEA420806FA08FCDA
:1007C00027EA0C07D1F80CC00CFA08FC4CEA070C1D
:1007D000C0F808C04768A7430C79C4F300149440DC
:1007E0003C4344600C79E443A4070AD0C4684FEA50
:1007F000420C06FA0CF7BC438F6807FA0CF7274344
:10080000C7600C7904F00304022C12D1D40800EB69
:10081000840CDCF820405707FF0E09FA07F824EA99
:100820000804D1F8108008FA07F848EA0408CCF860
:10083000208004684FEA420C06FA0CF7BC430F799B
:1008400007F0030707FA0CF7274307604C6814F416
:10085000403F70D03C4C276847F4804727602468AD
:1008600022F0030704F480440094384C07EB040C96
:10087000DCF8084897074FEA177809FA08F7BC43ED
:10088000334FB84202D1002724E054E0314FB84240
:1008900001D101271EE0304FB84201D1022719E0F3
:1008A0002E4FB84201D1032714E02D4FB84201D199
:1008B00004270FE02B4FB84201D105270AE02A4F49
:1008C000B84201D1062705E0284FB84201D10727D9
:1008D00000E0082707FA08F72743CCF80878DAF889
:1008E00000405746D1F804C09C435FEACC2C00D5A9
:1008F0001C433C60DBF800405F46D1F804C09C43D9
:100900005FEA8C2C00D51C433C60DEF80040774643
:10091000D1F804C09C435FEA8C3C00D51C433C608A
:10092000084F083F3C68D1F804C09C435FEACC3CC8
:1009300000D51C433C60521C102AFFF42FAFBDE8C9
:10094000F88F0000083C014044380240003001406C
:10095000000002400004024000080240000C024077
:10096000001002400014024000180240001C024027
:100970000069084000D001207047426921EA020363
:100980000A4043EA0241816170470AB181617047C0
:100990000904FBE701488068704700001800002048
:1009A0000248816802781144816070471800002075
:1009B0000B4810B5016841F400710160016841F411
:1009C00080610160016841F480710160032000F0E2
:1009D0009FF80F2000F006F800F050F8002010BD3E
:1009E000003C024030B50546204887B0002401682D
:1009F00041F001010160006806A900F001000090CB
:100A000001A800F031F90498B0B100F04DF94000B0
:100A100017494FF08042B0FBF1F11648491E0260C1
:100A200040F2E732C0E90324C0E90114846100F018
:100A300045FB040003D015E000F036F9E8E70D4867
:100A400000F06AFB04000DD11C2000F033F8102DDB
:100A500007D2002229461C2000F03AF8064805601B
:100A600000E0012407B0204630BD000040380240BD
:100A700040420F00F80300201C0000200C4882B008
:100A8000016841F480410160006800F480400090FA
:100A90000748001F016841F0805101600068002292
:100AA00000F0805000900F21901E02B000F010B8AE
:100AB00044380240002809DB00F01F020121914068
:100AC0004009800000F1E020C0F8001170470000EC
:100AD000F0B40E4B1B680C46C3F30223C3F10705A9
:100AE000042D00D90425191D072901D2002300E097
:100AF000DB1E012606FA05F1491E214099409E4061
:100B0000761E16403143F0BC01F090B90CED00E0C8
:100B1000064900F0070208684FF6FF03184040EA54
:100B20000220034A10430860704700000CED00E00B
:100B30000000FA052DE9F0470E46050065D0DFF804
:100B40001481D8F80000F7B200F00700B04207D2D5
:100B500088F80070D8F8000000F00700B04254D1C7
:100B600028683D4C810712D5400703D5206840F422
:100B7000E05020602878000703D5206840F46040EA
:100B800020602068A96820F0F000084320602878E1
:100B9000C0072DD0304968680839012812D00228D2
:100BA00013D0032811D00968890700292DDA21689C
:100BB00021F0030101432160FFF7ECFE814641F281
:100BC000883A0EE009688903EFE709688901ECE7D4
:100BD000FFF7E0FEA0EB0901514502D90320BDE873
:100BE000F0872068696800F00C00B0EB810FEFD14E
:100BF000D8F80010404601F00701B14207D907704C
:100C0000006800F00700B04201D00120E7E7287833
:100C1000400705D52068E96820F4E05008432060CB
:100C20002878000706D52068296920F4604040EA4A
:100C3000C100206000F058F82168084AC1F3031190
:100C4000515CC8400649086006480068FFF7CAFEC4
:100C50000020C4E7003C0240083802400834000885
:100C6000240000201C0000200F2202600C4A1368A0
:100C700003F003034360136803F0F0038360136819
:100C800003F4E053C36012684FF4E05303EAD20266
:100C900002610448006800F0070008607047000027
:100CA00008380240003C02400448054900680968D1
:100CB000044AC1F38221515CC840704724000020DF
:100CC00008380240183400080448054900680968DB
:100CD000044AC1F34231515CC840704724000020EF
:100CE0000838024018340008154810B5006810F0A4
:100CF0000C02144813D01449042A0FD0082A0ED12C
:100D00000F4C241F2268236802F03F025B0207D5C4
:100D10002068C0F38810A0FB010106E0084610BD62
:100D20002168C1F38811A1FB00010023FFF7A8FA95
:100D30002168C1F30141491C4900B0FBF1F010BD2D
:100D4000083802400024F40040787D012DE9F84F76
:100D500004006ED02078DFF84C93C007A9F1040599
:100D60004AD009F104000168C1F38101012908D0CA
:100D70000068C0F3810002280AD1D9F800004002BF
:100D800006D52868800337D560680028E1D033E0B5
:100D90006068B0F5803F10D0B0F5A02F286810D063
:100DA00020F480302860286820F480202860606863
:100DB000A8B1FFF7EFFD06460DE0286840F480304B
:100DC000F4E740F480202860F7E700BFFFF7E2FD7A
:100DD000801B642873D828688003F7D50CE0FFF7E0
:100DE000D9FD064605E000BFFFF7D4FD801B64284F
:100DF000F0D828688003F7D42078DFF8AC82800729
:100E00004FF0000A3ED5A748001D016811F00C0FF5
:100E100008D00068C0F3810002280BD1D9F8000087
:100E2000400207D42868800716D5E068012800D161
:100E300012E033E1E068B8B10120C8F80000FFF724
:100E4000A9FD064605E000BFFFF7A4FD801B0228B0
:100E5000C0D828688007F7D52868216920F0F800F5
:100E600040EAC10028600DE0C8F800A0FFF792FD3D
:100E7000064604E0FFF78EFD801B02281FD8286875
:100E80008007F7D42078000722D5864F874861690C
:100E9000703771B101210160FFF77CFD064604E067
:100EA000FFF778FD801B022809D838688007F7D53E
:100EB0000EE0C0F800A0FFF76DFD064605E082E0F9
:100EC000FFF768FD801B02287DD838688007F7D4BB
:100ED0002078400768D5DFF8CCB100270BF13C0B38
:100EE000DBF80000C0000BD4DBF8001041F08051AB
:100EF000CBF80010DBF80000012700F080500090D4
:100F00006B4E3068C00510D4306840F4807030609B
:100F1000FFF740FD009005E0FFF73CFD0099401A07
:100F2000022850D83068C005F6D55E4EA0686C36F1
:100F300001280FD00528306810D020F00100306063
:100F4000306820F004003060A068B8B1FFF722FDDF
:100F500000900FE0306840F00100F4E740F004003A
:100F60003060F7E7FFF716FD0099411A41F288302B
:100F7000814266D830688007F4D50EE0FFF70AFD9D
:100F8000009007E0FFF706FD0099411A41F2883012
:100F9000814256D830688007F4D42FB1DBF80010B6
:100FA00021F08051CBF80010A069C8B33D49091D5C
:100FB0000968C1F3810102294AD00228504607D0AE
:100FC000C8F8600000E03CE0FFF7E4FC04463BE0CA
:100FD0004746C8F86000FFF7DDFC064605E000BFA5
:100FE000FFF7D8FC801B02282BD828688001F7D493
:100FF000D4E907010843A16A2E4A490802EB0141DE
:10100000626A41EA8211084394F82C1040EA0161B7
:10101000C9F8001001203866FFF7BCFC044606E062
:101020003EE000BFFFF7B6FC001B022809D8286885
:101030008001F7D534E000BFFFF7ACFC001B0228AD
:1010400002D90320BDE8F88F28688001F4D427E096
:101050000128F7D0D9F80000E26900F4800191423C
:101060001CD1226A00F03F01914217D147F6C071AE
:10107000626A0140B1EB821F10D1A26A4FF0FF33C8
:1010800000F4403103EB5202B1EB024F06D194F869
:101090002C1000F07060B0EB016F01D00120D1E79F
:1010A0000020CFE70438024000004742800E47424C
:1010B000007000400000FFFF7047704710B504004B
:1010C00003D094F83D0010B107E0012010BD0020CE
:1010D00084F83C00204600F01EF8022084F83D0011
:1010E000211D206800F0CEFC012084F8460084F821
:1010F0003E0084F83F0084F8400084F8410084F802
:10110000420084F8430084F8440084F8450084F8E1
:101110003D00002010BD704790F83D10012901D01E
:1011200001207047022180F83D100168CA6842F032
:101130000102CA6000681149884214D0B0F1804FA2
:1011400011D00F4988420ED00E4988420BD00E496B
:10115000884208D00D49884205D00D49884202D006
:101160000C49884204D1816801F00701062903D0A7
:10117000016841F00101016000207047000001405A
:101180000004004000080040000C00400004014042
:10119000004001400018004070472DE9F04104462E
:1011A0000068C66805694FF00007A90713D5B107A5
:1011B00011D5F91E01610120207720688069800720
:1011C000204602D0FFF7E8FF04E000F07EF820465A
:1011D00000F07CF82777680716D5700714D52168CA
:1011E0006FF004000861022020772068806910F405
:1011F000407F204602D0FFF7CFFF04E000F065F803
:10120000204600F063F82777280715D5300713D557
:1012100021686FF008000861042020772068C06909
:101220008007204602D0FFF7B7FF04E000F04DF83A
:10123000204600F04BF82777E80616D5F00614D5BF
:1012400021686FF010000861082020772068C069CD
:1012500010F4407F204602D0FFF79EFF04E000F02C
:1012600034F8204600F032F82777E80708D0F00776
:1012700006D021686FF001000861204600F027F8D1
:10128000280608D5300606D521686FF08000086171
:101290002046FFF711FF680608D5700606D52168BD
:1012A0006FF040000861204600F018F8A8060AD543
:1012B000B00608D521686FF0200008612046BDE81F
:1012C000F041FFF7FABEBDE8F08170477047006853
:1012D000B0F1804F01D1FFF763BB70477047704793
:1012E00070470000F8B5016804460868CA684B6991
:1012F00010F00F0F4FF000055AD003F0010602F472
:101300009077374365D0C10705D0D10503D5616C0F
:1013100041F001016164410705D5D90703D0616C33
:1013200041F002016164810705D5D90703D0616CE2
:1013300041F004016164010707D502F02001314347
:1013400003D0616C41F008016164616C00293BD0FD
:10135000800604D5900602D5204600F02EFC2068B9
:101360004069616CC0F3801001F008010143204620
:101370002BD000F0FBFB20684069400621D5206897
:10138000143050E8001F21F0400140E80012002A0C
:10139000F5D1E06BA8B16E490165E06BFFF7A4F8E9
:1013A000002811D0E06B016D01B0BDE8F0400847A6
:1013B00083060ED593060CD52046BDE8F84000F014
:1013C000FCBB2046FFF78CFFF8BDFFF789FF656483
:1013D000F8BD266B2023012E7DD1C6067BD5D6060F
:1013E00079D508684868009048694FF002064006C1
:1013F00041D5E16B086840680004000CE8D0A28D7C
:101400008242E5D9E085C869B0F5807F2DD020689B
:101410000C3050E8001F21F4807140E80012002ACF
:10142000F5D12168143151E8000F20F0010041E8A6
:101430000002002AF5D12068143050E8001F21F086
:10144000400140E80012002AF5D184F842302563BB
:1014500020680C3050E8001F21F0100140E8001215
:10146000002AF5D1E06BFEF7F6FF6663A08DE18DF3
:10147000401A81B22AE0A08DE18D401A81B2E08D40
:101480000028A5D00029A3D022680C3252E8000F12
:1014900020F4907042E80007002FF5D12068143046
:1014A00050E8002F22F0010240E80027002FF5D17C
:1014B00084F84230256320680C3050E8002F22F079
:1014C000100240E80023002BF5D166632046FFF7A9
:1014D00006FFF8BDFFE705062BD5150629D594F8BC
:1014E00041002128F5D1A068B0F5805F01D12069C5
:1014F000B0B1206A411C2162216800784860E08C0C
:10150000401E0004000CE084E3D12068C16821F093
:101510008001C1602068C16841F04001C160D8E726
:10152000206A0088C0F308004860206A801C20629E
:10153000E5E74006CDD55006CBD5CA68204622F057
:101540004002CA6084F8413000F0FBF8C1E70000B7
:101550005D1B000870B5040004D094F8410000251C
:1015600010B106E0012070BD84F84050204600F024
:1015700023F8242084F841002068C16821F4005138
:10158000C160204600F07AFB2068016921F4904197
:1015900001612068416921F02A0141612068C16828
:1015A00041F40051C1606564202084F8410084F852
:1015B00042006563002070BD2DE9F04186B006460B
:1015C00014216846FEF7A6FE30493068884259D19A
:1015D0002F480024016841F010010160006800F00C
:1015E000100005902A481438016841F0010101609B
:1015F0000068694600F0010005904FF4C06000905B
:101600000220CDE901040320039007200490214823
:10161000FFF7B6F8214D20484FF000672860C5E974
:1016200001744FF48068C5E903486C61AC61EC61FA
:101630002C6228466C62FFF739F808B1FEF709FF03
:10164000F563AE63154D144860357830E5E8020760
:101650004020A5E81101114845F814496030AC61FB
:10166000EC612C626C62FFF721F808B1FEF7F1FE25
:10167000B563002205212520AE63FFF729FA252056
:10168000FFF718FA06B0BDE8F08100000010014035
:101690004438024000000240406402403803002009
:1016A00070472DE9F843044690F8410098461646E5
:1016B0000D46202802D00220BDE8F88385B17EB116
:1016C00000206064212084F84100FFF763F9A684BC
:1016D0008146E684A0682027B0F5805F02D003E051
:1016E0000120E9E7206910B12E4600250EE0002612
:1016F0000CE08021204600F047FBA8B9C6B116F8DF
:10170000010B21684860E08C401EE084E08C4B4671
:101710004FF00002CDF800800028EAD14FF04001E0
:10172000204600F031FB40B184F841700320C3E74C
:1017300035F8020BC0F30800E3E784F8417000209D
:10174000BAE77047FEE70000094C00BF00F076FCE6
:101750002070012802D1A06801F06CF920780228DD
:1017600002D1A06801F0F2F8012000F0B4FCEDE72E
:101770000000002008B5094C4FF47A750090002352
:101780002A466946606901F0C9FA012802D004A01E
:1017900000F03CFB012000F09EFCF0E70000002080
:1017A000436F756C64206E6F742073656E64207473
:1017B0006F20746865207175657565210D0A0000DC
:1017C00008B50F4C0F4E4FF480654FF4FA77009038
:1017D00000226946606901F051FB01280AD00AA085
:1017E00000F014FB29463046FFF7C7F8384600F0F2
:1017F00072FCEDE70CA0009900F008FBF2E7000096
:101800000000002000140240636F756C64206E6F4E
:1018100074207265636569766520746865207175EA
:10182000657565210D0A000025640D0A00000000A1
:101830000D4808B5016841F480010160006800228C
:1018400000F48000009005213A20FFF741F93A208A
:10185000FFF730F9002205214620FFF739F9BDE8EE
:1018600008404620FFF726B93038024010B59CB03A
:1018700000220421052001F0EBF9174C1C22174926
:1018800060616846FEF72DFD6421684600F02FFC7C
:10189000124960601C221C3107A8FEF722FD0021BE
:1018A00007A800F024FC0D49A0601C2238310EA8C6
:1018B000FEF717FD00210EA800F019FC0749E060B3
:1018C0001C22543115A8FEF70CFDC82115A800F004
:1018D0000EFC20611CB010BD0000002090330008F9
:1018E000F0B587B014216846FEF714FD21480024A6
:1018F000016841F010010160016801F010010591DB
:10190000016841F020010160016801F020010591AA
:10191000016841F080010160016801F080010591DA
:10192000016841F0010101600068134F00F00100FF
:101930004FF4C0660590002231463846FFF725F87F
:10194000102002258DE8310069460C48FEF718FF8B
:1019500000960126CDE90164694638460394FEF7F6
:101960000FFF009669460648CDE90145FEF708FFDE
:1019700007B0F0BD303802400014024000100240B1
:10198000000002400C4810B50A4901604FF4E131F3
:101990004160002181600C22C160C0E904128161B4
:1019A000C161FFF7D7FD002803D0BDE81040FEF766
:1019B00050BD10BD00100140F0020020FEE7FEE720
:1019C00010B5502080F31188BFF34F8FBFF36F8F96
:1019D00001F090FB18B104494FF0805008600020DE
:1019E00080F3118810BD000004ED00E010B592B046
:1019F00030216846FEF78EFC14210CA8FEF78AFC05
:101A000017480024016841F080510160006800F02F
:101A1000805011901348016841F4804101600068D2
:101A2000069400F480401190022000900120039061
:101A3000102004906846FFF789F908B172B6FEE7F6
:101A40000F20CDE90C040E940F9400210CA81094E3
:101A5000FFF770F8002801D072B6FEE712B010BD93
:101A600040380240007000400248016841F47001B3
:101A70000160704788ED00E00148FFF78EBB000071
:101A8000F8030020F0B50268294C2A4D2A4E2B4F4E
:101A90002B4B4FF0804CA04209D0604507D0A842A4
:101AA00005D0B04203D0B84201D0984204D122F010
:101AB000700E4A6842EA0E02A0421BD0604519D05F
:101AC000A84217D0B04215D0B84213D0984211D0D6
:101AD0001C4DA8420ED01C4DA8420BD01B4DA84255
:101AE00008D01B4DA84205D01A4DA84202D01A4D6D
:101AF000A84203D122F44075CA682A434D6922F0F6
:101B000080022A4302608A68C2620A688262A04236
:101B100001D0984201D10969016301214161016944
:101B2000C90703D0016921F001010161F0BD000086
:101B3000000001400004004000080040000C00408C
:101B400000040140004001400044014000480140C1
:101B500000180040001C00400020004010B5806BC1
:101B60000021C185C184FFF7BBFB10BD01680C31AA
:101B700051E8002F22F4907241E80023002BF5D1A8
:101B80000168143151E8002F22F0010241E80023DE
:101B9000002BF5D1016B012909D101680C3151E805
:101BA000002F22F0100241E80023002BF5D1202164
:101BB00080F8421000210163704708B590F8421088
:101BC000222901D0022008BD82684FF480539A4236
:101BD00001D1016921B1816A9A421BD04AB10AE060
:101BE0000268816A5268C2F308020A80816A891C0D
:101BF00008E0026972B10268526802F07F020A705E
:101C0000816A491C8162C18D491E0904090CC18584
:101C100003D01BE002685268F1E70168CA6822F04D
:101C20002002CA600168CA6822F48072CA60016832
:101C30004A6922F001024A61202180F84210002105
:101C40004163026B012A03D0FFF72AFD002008BD83
:101C5000016301680C3151E8002F22F0100241E8C5
:101C60000023002BF5D101680A68D20602D50A6864
:101C700049680091818DFFF732FBE7E770B50446B4
:101C800000680169E26821F4405111430161216952
:101C9000A068E26908436169114308432168CA6882
:101CA00049F20C639A430243CA6020684169A26901
:101CB00021F440711143416131492068884202D0CA
:101CC0003049884202D1FEF7FFFF01E0FEF7ECFF4A
:101CD000E2690023192164253226B2F5004F6268BB
:101CE00028D0A0FB0101930F9200FEF7C9FA01462C
:101CF000B0FBF5F06FF01802504301EB800006EBEB
:101D00000010B0FBF5F000F0F002B1FBF5F002EBD3
:101D10000012B1FBF5F06FF01803584301EB80009F
:101D200006EB0010B0FBF5F000F00F002168104446
:101D3000886070BDA0FB010192185B41FEF7A0FA1C
:101D40000146B0FBF5F00201B1FBF5F06FF01803AE
:101D5000584301EB800006EBC000B0FBF5F000F04B
:101D6000F80002EB4002B1FBF5F0584301EB8000B4
:101D700006EBC000B0FBF5F000F00700D6E700006E
:101D800000100140001401402DE9F8439846174621
:101D90000D460446089E24E0701C22D0FEF7FAFD92
:101DA000A0EB0800B0421AD8CEB12068C16849073C
:101DB00017D5802D15D0402D13D00168C9430907D0
:101DC0000FD401680025406800902046FFF7CEFE42
:101DD0000820606484F840500120BDE8F8830320A7
:101DE000FBE72068006835EA000004D00020B84214
:101DF000D2D00020F1E70120F9E700000148FFF709
:101E000071BA0000F0020020FEE700000FB4054B9D
:101E100010B503A9044A029800F028F810BC5DF838
:101E200014FB000025200008900000200907090E7F
:101E3000002804DB00F1E02080F80014704700F077
:101E40000F0000F1E02080F8141D704702E008C880
:101E5000121F08C1002AFAD170477047002001E024
:101E600001C1121F002AFBD1704700002DE9FF4F6E
:101E70008BB09A460F460546002606E025280BD073
:101E800052460D9990476D1C761C28780028F5D194
:101E90000FB03046BDE8F08F0024A0460122604913
:101EA00000E0044315F8013F203B02FA03F008422A
:101EB000F7D128782E2817D115F8010F44F0040423
:101EC0002A280ED06FF02F022878A0F130010929BE
:101ED0000AD808EB880102EB410100EB01086D1CF8
:101EE000F2E757F8048B6D1C287869283ED006DC91
:101EF0000028CDD063280BD0642804D136E07328A5
:101F000010D075284BD052460D999047761C85E02D
:101F100017F8040B8DF8000000208DF80100E94649
:101F2000012003E057F8049B4FF0FF3061074FF0AA
:101F3000000401D40AE0641C44450DDA8442FADB53
:101F400019F804100029F6D106E0641C8442FCDB79
:101F500019F804100029F8D1264404E019F8010BFF
:101F600052460D999047641EF8D257E001CF4FF0CA
:101F70000A0B002802DA40422D2102E0210504D597
:101F80002B218DF82410012103E0E10705D0202149
:101F9000F7E70DF1200908910CE00021F9E701CFE6
:101FA0004FF00A0BF9E75946FEF7BFF901F130028D
:101FB00009F8012D0028F6D1ADEB090000F1200B46
:101FC000600701D44FF00108D84502DDA8EB0B00F3
:101FD00000E000208046002406E009A85246005D8B
:101FE0000D999047641C761C08988442F5DB04E048
:101FF000302052460D999047761CB8F10001A8F1A7
:102000000108F5DC05E019F8010B52460D999047DF
:10201000761CBBF10001ABF1010BF4DC6D1C34E765
:102020000928010013B56423012269460248FFF71D
:1020300038FB00981CBD0000F002002070B5184D60
:1020400001212846FEF794FC164E174C20B91021AA
:102050003046FEF78DFC08B1607828B10121284692
:10206000FEF786FC98B119E0012060700A2000F0AC
:1020700032F801212846FEF77BFC08B1012070BD33
:1020800010213046FEF774FC40B1022070BD1021D3
:102090003046FEF76DFC08B900206070002070BD6E
:1020A000000002400010024000000020FEF780FC0B
:1020B000FFF79CFCFFF714FCFFF7BAFBFFF762FC8D
:1020C000FFF7D4FB00F00EF8FEE70146002084295C
:1020D00000D0C81C704710B500B9012000F0EAFB21
:1020E000002010BD10B500F06FFC002010BD7FB5C2
:1020F0000D4604464169B0F9080081B1A16971B18A
:10210000FFF7E3FFD4E905128DE80700D4E90010DA
:102110002B46226900F0B5FF039004B070BDFFF7B5
:10212000D4FF03A9CDE90001208A2B4682B2D4E96D
:10213000001000F079FF012801D00020EDE703989E
:10214000EBE700002DE9F041184C0F460546E66824
:102150002068001D00F0E6FA38B9206890F82C10CD
:1021600001208840216981432161681C07D137B172
:102170002168BDE8F0410E48091D00F017BB20683A
:102180003544B5424560216805D2A06BBDE8F041F9
:10219000091D00F0F3BA606B091D00F0EFFAA06AA8
:1021A000854200D2A562BDE8F08100002800002031
:1021B0001C0500202DE9F041054600F003FB2E4CE4
:1021C000A068401CA06020682C4F10B1606940B32B
:1021D0002DE02560A068012829D1002606EB8600A5
:1021E00007EB800000F0BCFA761C072EF6D32348DC
:1021F0008C3000F0B5FA2148A03000F0B1FA1F4849
:10220000B43000F0ADFA1D48C83000F0A9FA1B4800
:10221000DC3000F0A5FA19488C3060631430A063FC
:1022200005E02068E96AC06A884200D82560606AD3
:10223000401C60626864E96A01202269884010439A
:10224000206101EB810007EB8000291D00F0AEFA50
:1022500000F0D8FA606900280CD02068E96AC06AEA
:10226000884207D206494FF080500860BFF34F8F75
:10227000BFF36F8FBDE8F0812800002040040020EC
:1022800004ED00E030B4026C0B46002A0BD0C168AC
:102290001144C1608468A14201D30168C16030BCAF
:1022A0001846FEF71EB830BC70472DE9F041856B2B
:1022B000174604460026026C82B1C7B1E068FEF7FB
:1022C00010F8E168206C091AE1602268914202D29C
:1022D000A168081AE060022F16D017E02068A8B99C
:1022E000A06800F06DFF06460020A0600EE0606868
:1022F000FDF7F7FF216C606808446060A1688842C0
:1023000004D32068606001E005B16D1E6D1CA563FB
:102310003046BDE8F08110B5044690F8590058B138
:1023200001280CD002280FD0502080F31188BFF371
:102330004F8FBFF36F8FFEE7206B00F077FA2046D8
:10234000BDE8104000F072BA10BD000010484FF414
:102350007051420706D0C01D0D4920F00700411AF8
:10236000C1F570510B4A00230144C2E9000308394A
:10237000183A21F0070111604B600B600B1AC0E99D
:10238000001393604FF000405360506170470000AD
:10239000300500207C000020144E154CA6F1C80723
:1023A0004FF08058DFF84C9012E000BF00F00AFABE
:1023B000F068C568281D00F0B5F9A068401EA0604F
:1023C0006068401E606000F01DFA2846FFF7A3FF1A
:1023D00060680028EAD138680128F9D9C9F8008076
:1023E000BFF34F8FBFF36F8FF2E7000008050020A7
:1023F0002800002004ED00E070B51D46049C51B19A
:10240000C4F80020C4E90F010121204600F042FC7D
:1024100084F84C5070BD2460F4E700002DE9F05FB3
:102420008846DDE90B941546834691009A460A9E3C
:10243000A522206BFDF767FF6FF00301206B01EB16
:102440008501084420F00707780707D0502080F363
:102450001188BFF34F8FBFF36F8FFEE70025B8F1F0
:10246000000F0FD05FF00000221818F8001082F85B
:10247000341018F8001011B1401C1028F4D384F85F
:10248000435001E084F83450072E00D30626E6625C
:10249000C4E91365201D00F06EF904F1180000F086
:1024A0006AF92461C6F107006462A061656584F879
:1024B000585052465946384600F01EF92060B9F18E
:1024C000000F01D0C9F80040BDE8F09F30B51149B8
:1024D00000E011460A688242FBD34B685C188442D4
:1024E00003D1406818444860084643681C18944269
:1024F00009D1084C183C2468A24209D052681A44F9
:1025000042600A6812680260814200D0086030BDF3
:102510000460F9E77C00002010B5044600F052F991
:10252000A06B28B15FF0000400F06CF9204610BDEC
:102530000124F9E70648416B096829B1416BC96874
:10254000C9684968816270474FF0FF31FAE70000BF
:102550002800002008484068401C4FF0500080F3DD
:10256000118804D0BFF34F8FBFF36F8FFEE7BFF327
:102570004F8FBFF36F8FFEE784000020002150B122
:102580000A4B42699A420FD1806AA3F12802904215
:102590000AD040B108E0502080F31188BFF34F8F7C
:1025A000BFF36F8FFEE70121084670471C0500202E
:1025B0002DE9F041044600F005F994F9455004F185
:1025C000240609E0606A48B1304600F045FE08B1D3
:1025D00000F09EF96D1E6DB2002DF3DC4FF0FF365A
:1025E00084F8456000F00EF900F0ECF894F94450DE
:1025F00004F1100709E0206948B1384600F02CFECC
:1026000008B100F085F96D1E6DB2002DF3DC84F881
:102610004460BDE8F04100F0F5B800002DE9F0415C
:102620000546002700F064FA324E306808B9FFF71B
:102630008DFE706905424ED1C5B3083568070ED0CE
:1026400005F00700C0F108000544680707D05020D6
:1026500080F31188BFF34F8FBFF36F8FFEE72DB369
:102660007068854237D82348183001460C6801E06D
:1026700020460C466168A94202D221680029F7D1A0
:1026800031688C4227D0076821680160606808378C
:10269000411B10290FD96019420708D0502080F340
:1026A0001188BFF34F8FBFF36F8FFEE713E04160D8
:1026B0006560FFF70BFF61687068401A7060B26870
:1026C000904200D2B060706901430020C4E900016B
:1026D000F068401CF06000F0F9FD780707D050204A
:1026E00080F31188BFF34F8FBFF36F8FFEE738463B
:1026F000BDE8F0816400002010B5031F4FF0807426
:102700001C601B1F21F001011960191F044B0B6095
:1027100014390A60091F6FF0020244380A6010BDC4
:1027200055250008D0E9013201699A60D0E90123FA
:102730005A604A68824201D182684A60002202617E
:102740000868401E0860086870470000034B03607B
:1027500003F15C0008608020106070479400002046
:1027600000F108014FF0FF32C0E90112C1600161C0
:1027700000210160704700210161704730B50B688E
:102780005A1C02D000F1080202E0026904E022466D
:10279000546825689D42FAD953684B6099608A60F5
:1027A000516008610168491C016030BD42684A609F
:1027B00093688B6093685960916008610168491C57
:1027C00001607047502080F31188BFF34F8FBFF333
:1027D0006F8F0A494868401C486001280CD108489E
:1027E000006810F0FF0F07D0502080F31188BFF36E
:1027F0004F8FBFF36F8FFEE770470000840000200B
:1028000004ED00E00849486828B1401E486001D145
:1028100080F311887047502080F31188BFF34F8FE9
:10282000BFF36F8FFEE700008400002070B5002822
:102830002AD0164DA0F1080460686969084207D1E2
:10284000502080F31188BFF34F8FBFF36F8FFEE7E7
:1028500022683AB1502080F31188BFF34F8FBFF345
:102860006F8FFEE78843606000F042F96068696836
:10287000084468602046FFF729FE2869401C28614B
:10288000BDE8704000F022BD70BD00006400002073
:102890004FF0E02000210161816105494FF47A7217
:1028A0000968B1FBF2F1491E4161072101617047DE
:1028B0002400002010B5020014D00F48006B38B17E
:1028C000502080F31188BFF34F8FBFF36F8FFEE767
:1028D00000F00EF900211046FFF734FC00F0F6FC82
:1028E000002807D105494FF080500860BFF34F8F93
:1028F000BFF36F8F10BD00002800002004ED00E042
:1029000002490A6A0260C9684160704728000020D5
:1029100001490120C86170472800002010B50C460D
:1029200050B1094909681831FFF728FF2046BDE872
:1029300010400121FFF706BC502080F31188BFF33F
:102940004F8FBFF36F8FFEE72800002070B50400A3
:102950002BD01A4D286884422FD0FFF733FF204632
:10296000FFF70CFEE8B1201DFFF7DCFEE06A012155
:102970002A69814011432961114900EB800001EB74
:102980008000211DFFF712FFE06A2968C96A8842AA
:1029900007D30C494FF080500860BFF34F8FBFF34F
:1029A0006F8FBDE87040FFF72DBF502080F3118876
:1029B000BFF34F8FBFF36F8FFEE770BD280000207D
:1029C0004004002004ED00E010B586B0002403941C
:1029D00005AA04A903A80494FFF7B8FEDDE90301E2
:1029E0000094CDE9011000230EA11048059A00F0D3
:1029F00048FB0F490028C86211D0502080F311888D
:102A0000BFF34F8FBFF36F8F4FF0FF30886201200D
:102A10004861CC6006B0BDE8104000F09FB806B039
:102A200010BD000049444C450000000099230008F7
:102A30002800002070B50446FFF7C4FE294D04B9F4
:102A40002C68201DFFF76EFE58B9E06A264A00EB9D
:102A5000800152F8211021B9012181402869884361
:102A60002861A06A18B104F11800FFF75BFE1E4848
:102A7000211DDC30FFF79AFE94F85800002601284B
:102A800001D184F85860FFF7BDFE686928B1FFF7EF
:102A900099FEFFF74FFDFFF7B5FE2868844213D17A
:102AA000686990B1286B38B1502080F31188BFF36A
:102AB0004F8FBFF36F8FFEE70C494FF080500860D7
:102AC000BFF34F8FBFF36F8F70BD0748DC300068D6
:102AD000A968884201D12E6070BDBDE8704000F049
:102AE0000FB80000280000204004002004ED00E0A2
:102AF0000248016B491C0163704700002800002058
:102B00001448016B11B10121C16170470021C161FD
:102B10000169B1FA81F1C1F11F0101EB81020E4996
:102B200051F822306BB101EB820101F108034A68D0
:102B300052684A609A4201D152684A60D168016085
:102B40007047502080F31188BFF34F8FBFF36F8F12
:102B5000FEE7000028000020400400201CB5374894
:102B60000168374A914207D1502080F31188BFF3A2
:102B70004F8FBFF36F8FFEE700683149491E8842CF
:102B800007D1502080F31188BFF34F8FBFF36F8FB1
:102B9000FEE72C4908780190FF20087008788DF82E
:102BA00000009DF800009DF8002000F0F000904229
:102BB00007D0502080F31188BFF34F8FBFF36F8F82
:102BC000FEE79DF80000204C00F050002070072028
:102BD000A06005E09DF8002052008DF80020401E06
:102BE0009DF800201206F5D4A060032807D05020DD
:102BF00080F31188BFF34F8FBFF36F8FFEE74FF461
:102C00004070A060019808700C482030016841F4C1
:102C100070010160016841F070410160FFF738FE0A
:102C200000206060FDF7DEFA0848016841F040418D
:102C30000160FDF7C3FA00201CBD000000ED00E0BC
:102C400071C20F4100E400E08400002034EF00E096
:102C5000F8B517460E46050013D005FB06F05030B8
:102C6000FFF7DCFC04000AD0002084F8460004F1E1
:102C700050023B46314628460094FFF7BDFB2046F4
:102C8000F8BD502080F31188BFF34F8FBFF36F8FD3
:102C9000FEE7000070B50D46040025D0FFF792FD59
:102CA000D4E90F20216802FB0011A1600021A1637B
:102CB000216861600A46D4E90F01401E00FB012132
:102CC000E16021464FF0FF3001F8440F487004F1F5
:102CD00010008DB1FFF744FD04F12400FFF740FD23
:102CE000FFF790FD012070BD502080F31188BFF3E5
:102CF0004F8FBFF36F8FFEE721690029F0D000F0FE
:102D0000ABFA0028ECD004494FF080500860BFF3C4
:102D10004F8FBFF36F8FE3E704ED00E02DE9FF472E
:102D200082B01D468A464FF00008040003D0BAF175
:102D3000000F08D011E0502080F31188BFF34F8FAF
:102D4000BFF36F8FFEE7206C38B1502080F31188FD
:102D5000BFF34F8FBFF36F8FFEE7022D0AD1E06BF9
:102D6000012807D0502080F31188BFF34F8FBFF3A5
:102D70006F8FFEE700F0B0F93F4F4FF000094FF0C2
:102D8000805648B9049838B1502080F31188BFF3B9
:102D90004F8FBFF36F8FFEE7FFF714FDA06BE16B62
:102DA000884207D3022D05D00498D0B1B8F1000FA6
:102DB0001AD01EE02A4651462046FFF776FA616A8D
:102DC00019B104F1240000F047FA20B13E60BFF3CE
:102DD0004F8FBFF36F8FFFF715FD012006B0BDE8E1
:102DE000F087FFF70FFD22E06846FFF789FD4FF0FF
:102DF0000108FFF707FDFFF77BFEFFF7E3FC94F9FF
:102E00004400401C01D184F8449094F94500401CD2
:102E100001D184F84590FFF7F5FC04A9684600F05D
:102E2000C9F830B12046FFF7C3FB00F04FFA00208D
:102E3000D4E7FFF7C7FCA06BE16B884213D1FFF723
:102E4000E1FC04F110000499FFF768FD2046FFF74C
:102E5000AFFB00F03BFA00289ED13E60BFF34F8FDE
:102E6000BFF36F8F98E7FFF7CDFC2046FFF7A0FB7D
:102E700000F02CFA90E7000004ED00E02DE9F747A0
:102E8000002683B08A46040003D0BAF1000F08D0B0
:102E900011E0502080F31188BFF34F8FBFF36F8F85
:102EA000FEE7206C38B1502080F31188BFF34F8FBC
:102EB000BFF36F8FFEE700F00FF9DFF8F4804FF0FB
:102EC00000094FF0805748B9059838B1502080F379
:102ED0001188BFF34F8FBFF36F8FFEE7FFF772FCD0
:102EE000A56BC5B151462046FFF7CCF96D1EA56311
:102EF000206950B104F1100000F0AEF928B1C8F813
:102F00000070BFF34F8FBFF36F8FFFF77BFC012083
:102F100006B0BDE8F087059808B11EB106E0FFF7DE
:102F200071FC27E06846FFF7EBFC0126FFF76AFC1F
:102F3000FFF7DEFDFFF746FC94F94400401C01D189
:102F400084F8449094F94500401C01D184F84590E0
:102F5000FFF758FC05A9684600F02CF80028204629
:102F60000AD0FFF725FB00F0B1F92046FFF7D4FAAD
:102F70000028B3D00020CBE7FFF7CEFA90B104F1E0
:102F800024000599FFF7CAFC2046FFF711FB00F06B
:102F90009DF90028A2D1C8F80070BFF34F8FBFF38E
:102FA0006F8F9BE72046FFF703FB00F08FF995E753
:102FB00004ED00E02DE9F0410C46050011D0C4B14C
:102FC000FFF700FC174BDA686E682068911B471CFE
:102FD00017D02F681B6A9F4219D0964217D8012438
:102FE00010E0502080F31188BFF34F8FBFF36F8F35
:102FF000FEE7502080F31188BFF34F8FBFF36F8F30
:10300000FEE70024FFF7FEFB2046BDE8F081884282
:1030100005D9401A20602846FFF772FCF1E700202E
:103020002060DCE7280000202DE9FF5F8346DDE912
:103030000E87994616468A469000FFF7EFFA05007C
:103040001CD05C20FFF7EAFA040014D000202563AE
:1030500084F85900CDE90240CDE900874B4632465D
:1030600051465846FFF7DAF92046FFF7A3F801204A
:1030700004B0BDE8F09F2846FFF7D8FB4FF0FF30C3
:10308000F6E7F0B585B0DDE90B640A9DA6B1DCB1C9
:103090005C2700972663022684F85960002604AF57
:1030A000CDE90246CDE90057FFF7B8F92046FFF712
:1030B00081F8049805B0F0BD502080F31188BFF36B
:1030C0004F8FBFF36F8FFEE7502080F31188BFF35F
:1030D0004F8FBFF36F8FFEE70548416919B1006B51
:1030E00018B100207047012070470220704700008F
:1030F000280000202DE9F0412F4C0026206B28B13C
:10310000A069401CA0613046BDE8F081E5686D1CF7
:10311000E56013D1606B006838B1502080F31188EE
:10312000BFF34F8FBFF36F8FFEE7606BA16B6163DF
:10313000A063206A401C2062FFF7FCF9A06ADFF858
:103140007C80854209D3606B0068A0B1606BC06869
:10315000C7687868854211D2A0622068C06A00EB17
:10316000800158F82100012800D90126E0690028D3
:10317000C9D00126C7E74FF0FF30EDE7381DFFF754
:10318000D1FAB86A18B107F11800FFF7CBFAF96A5B
:103190000120226988401043206101EB810108EB86
:1031A0008100391DFFF702FBF86A2168C96A88426D
:1031B000C9D30126C7E700002800002040040020F2
:1031C00070B504004FF0000140D0214D28688442C2
:1031D00007D0502080F31188BFF34F8FBFF36F8F5C
:1031E000FEE7206D38B1401E2065E36CE26A9A422A
:1031F0002CD040B12AE0502080F31188BFF34F8FCC
:10320000BFF36F8FFEE7201DFFF78CFA114A0121F3
:1032100050B9E06A00EB800352F8233023B92B69E0
:1032200001FA00F083432B61E06CE062C0F107001B
:10323000A061E06A2B6981401943296100EB80009D
:1032400002EB8000211DFFF7B1FA0121084670BD95
:1032500028000020400400202DE9F041C068C46827
:10326000ACB104F118000746FFF75CFA154D286B66
:103270000126A0B139461448FFF798FAE06A296898
:10328000C96A88421CD90120EE61BDE8F081502056
:1032900080F31188BFF34F8FBFF36F8FFEE7201DC0
:1032A000FFF740FAE16A2A6906FA01F01043286143
:1032B00001EB81000449B43901EB8000211DDBE7FB
:1032C0000020E2E728000020F40400202DE9F04768
:1032D0002C4D00242746286B38B1FFF773FA286B72
:1032E000401E2863286B40B146E0502080F31188CF
:1032F000BFF34F8FBFF36F8FFEE7A968224E012007
:10330000D1B3A6F1B40980463068E8B1F068C4686A
:1033100004F11800FFF706FA201DFFF703FAE06A30
:103320002A6908FA00F11143296100EB800109EBD9
:103330008100211DFFF73AFAE06A2968C96A8842CC
:10334000E2D3C5F81C80DFE70CB1FFF7F3F8AC69F6
:1033500044B14646FFF7CEFE00B1EE61641EF9D1DE
:103360000020A861E86938B10849012738070860DA
:10337000BFF34F8FBFF36F8FFFF744FA3846BDE8B6
:10338000F087000028000020F404002004ED00E095
:10339000203400087517000800000000000000003D
:1033A0008000000000000000000000002834000839
:1033B000C1170008010000000000000080000000AC
:1033C0000000000000000000303400084917000829
:1033D000010000000000000080000000000000006C
:1033E00000000000343400087517000800000000D9
:1033F000000000008000000000000000000000004D
:103400000006101600061016000000000000000064
:10341000010203040607080900000000010203047A
:103420004C454430000000004C4544310000000091
:103430004B45590053656E64657200005C340008AA
:1034400000000020940000004C1E0008F03400082A
:10345000940000209C4400005C1E00080000000056
:10346000000000000000000000000000000000005C
:10347000000000000100000010000000000000003B
:103480000024F40000000000000000000000000024
:10349000000000000000000000000000000000002C
:1034A000000000000000000000000000000000001C
:1034B000000000000000000000000000000000000C
:1034C00000000000000000000000000000000000FC
:1034D00000000000000000000000000000000000EC
:1034E00000000000AAAAAAAA000000000000000034
:040000050800018965
:00000001FF
